{
  "address": "0x5227adCf5007f2Ec092c422437538000aFa1F94E",
  "abi": [
    {
      "inputs": [],
      "stateMutability": "nonpayable",
      "type": "constructor"
    },
    {
      "anonymous": false,
      "inputs": [
        {
          "indexed": true,
          "internalType": "bytes32",
          "name": "role",
          "type": "bytes32"
        },
        {
          "indexed": true,
          "internalType": "bytes32",
          "name": "previousAdminRole",
          "type": "bytes32"
        },
        {
          "indexed": true,
          "internalType": "bytes32",
          "name": "newAdminRole",
          "type": "bytes32"
        }
      ],
      "name": "RoleAdminChanged",
      "type": "event"
    },
    {
      "anonymous": false,
      "inputs": [
        {
          "indexed": true,
          "internalType": "bytes32",
          "name": "role",
          "type": "bytes32"
        },
        {
          "indexed": true,
          "internalType": "address",
          "name": "account",
          "type": "address"
        },
        {
          "indexed": true,
          "internalType": "address",
          "name": "sender",
          "type": "address"
        }
      ],
      "name": "RoleGranted",
      "type": "event"
    },
    {
      "anonymous": false,
      "inputs": [
        {
          "indexed": true,
          "internalType": "bytes32",
          "name": "role",
          "type": "bytes32"
        },
        {
          "indexed": true,
          "internalType": "address",
          "name": "account",
          "type": "address"
        },
        {
          "indexed": true,
          "internalType": "address",
          "name": "sender",
          "type": "address"
        }
      ],
      "name": "RoleRevoked",
      "type": "event"
    },
    {
      "inputs": [],
      "name": "DEFAULT_ADMIN_ROLE",
      "outputs": [
        {
          "internalType": "bytes32",
          "name": "",
          "type": "bytes32"
        }
      ],
      "stateMutability": "view",
      "type": "function"
    },
    {
      "inputs": [],
      "name": "MANAGER_RECIEVER_ROLE",
      "outputs": [
        {
          "internalType": "bytes32",
          "name": "",
          "type": "bytes32"
        }
      ],
      "stateMutability": "view",
      "type": "function"
    },
    {
      "inputs": [],
      "name": "MINTER_ROLE",
      "outputs": [
        {
          "internalType": "bytes32",
          "name": "",
          "type": "bytes32"
        }
      ],
      "stateMutability": "view",
      "type": "function"
    },
    {
      "inputs": [
        {
          "internalType": "bytes32",
          "name": "",
          "type": "bytes32"
        }
      ],
      "name": "crossChainRecievers",
      "outputs": [
        {
          "internalType": "address",
          "name": "",
          "type": "address"
        }
      ],
      "stateMutability": "view",
      "type": "function"
    },
    {
      "inputs": [
        {
          "internalType": "bytes32",
          "name": "role",
          "type": "bytes32"
        }
      ],
      "name": "getRoleAdmin",
      "outputs": [
        {
          "internalType": "bytes32",
          "name": "",
          "type": "bytes32"
        }
      ],
      "stateMutability": "view",
      "type": "function"
    },
    {
      "inputs": [
        {
          "internalType": "bytes32",
          "name": "role",
          "type": "bytes32"
        },
        {
          "internalType": "address",
          "name": "account",
          "type": "address"
        }
      ],
      "name": "grantRole",
      "outputs": [],
      "stateMutability": "nonpayable",
      "type": "function"
    },
    {
      "inputs": [
        {
          "internalType": "bytes32",
          "name": "role",
          "type": "bytes32"
        },
        {
          "internalType": "address",
          "name": "account",
          "type": "address"
        }
      ],
      "name": "hasRole",
      "outputs": [
        {
          "internalType": "bool",
          "name": "",
          "type": "bool"
        }
      ],
      "stateMutability": "view",
      "type": "function"
    },
    {
      "inputs": [
        {
          "internalType": "address",
          "name": "to",
          "type": "address"
        },
        {
          "internalType": "bytes32",
          "name": "chainNameHash",
          "type": "bytes32"
        },
        {
          "internalType": "address",
          "name": "destinationContractAddress",
          "type": "address"
        }
      ],
      "name": "mintTo",
      "outputs": [],
      "stateMutability": "nonpayable",
      "type": "function"
    },
    {
      "inputs": [
        {
          "internalType": "address",
          "name": "to",
          "type": "address"
        },
        {
          "internalType": "bytes32",
          "name": "chainNameHash",
          "type": "bytes32"
        },
        {
          "internalType": "address",
          "name": "destinationContractAddress",
          "type": "address"
        },
        {
          "internalType": "uint256",
          "name": "tokenId",
          "type": "uint256"
        }
      ],
      "name": "mintTo",
      "outputs": [],
      "stateMutability": "nonpayable",
      "type": "function"
    },
    {
      "inputs": [
        {
          "internalType": "address",
          "name": "to",
          "type": "address"
        },
        {
          "internalType": "bytes32",
          "name": "chainNameHash",
          "type": "bytes32"
        },
        {
          "internalType": "address",
          "name": "destinationContractAddress",
          "type": "address"
        },
        {
          "internalType": "uint256",
          "name": "tokenId",
          "type": "uint256"
        },
        {
          "internalType": "uint256",
          "name": "amount",
          "type": "uint256"
        }
      ],
      "name": "mintTo",
      "outputs": [],
      "stateMutability": "nonpayable",
      "type": "function"
    },
    {
      "inputs": [],
      "name": "proxy",
      "outputs": [
        {
          "internalType": "contract IMessageProxyForSchain",
          "name": "",
          "type": "address"
        }
      ],
      "stateMutability": "view",
      "type": "function"
    },
    {
      "inputs": [
        {
          "internalType": "bytes32",
          "name": "role",
          "type": "bytes32"
        },
        {
          "internalType": "address",
          "name": "account",
          "type": "address"
        }
      ],
      "name": "renounceRole",
      "outputs": [],
      "stateMutability": "nonpayable",
      "type": "function"
    },
    {
      "inputs": [
        {
          "internalType": "bytes32",
          "name": "role",
          "type": "bytes32"
        },
        {
          "internalType": "address",
          "name": "account",
          "type": "address"
        }
      ],
      "name": "revokeRole",
      "outputs": [],
      "stateMutability": "nonpayable",
      "type": "function"
    },
    {
      "inputs": [
        {
          "internalType": "bytes32",
          "name": "chainNameHash",
          "type": "bytes32"
        },
        {
          "internalType": "address",
          "name": "newReceiverAddress",
          "type": "address"
        }
      ],
      "name": "setCrossChainReceiver",
      "outputs": [],
      "stateMutability": "nonpayable",
      "type": "function"
    },
    {
      "inputs": [
        {
          "internalType": "bytes4",
          "name": "interfaceId",
          "type": "bytes4"
        }
      ],
      "name": "supportsInterface",
      "outputs": [
        {
          "internalType": "bool",
          "name": "",
          "type": "bool"
        }
      ],
      "stateMutability": "view",
      "type": "function"
    }
  ],
  "transactionHash": "0xae02625862316f5c716d4896bd038afd50aae3fca974f1a5d88a19722547b1c4",
  "args": [],
  "numDeployments": 1,
  "solcInputHash": "3ab2f54f9372a13f23776bc2479b52e8",
  "bytecode": "0x60806040523480156200001157600080fd5b50620000276000801b33620000e660201b60201c565b620000597f9f2df0fed2c77648de5860a4cc508cd0818c85b8b8a1ab4ceeef8d981c8956a633620000e660201b60201c565b6200008b7f28ef3adc5b20d69ab84ebe1e2f71d43bc6c9e6acb4a291daa08672fad7942e6c33620000e660201b60201c565b73d2aaa00100000000000000000000000000000000600160006101000a81548173ffffffffffffffffffffffffffffffffffffffff021916908373ffffffffffffffffffffffffffffffffffffffff16021790555062000249565b620000f88282620001d760201b60201c565b620001d357600160008084815260200190815260200160002060000160008373ffffffffffffffffffffffffffffffffffffffff1673ffffffffffffffffffffffffffffffffffffffff16815260200190815260200160002060006101000a81548160ff021916908315150217905550620001786200024160201b60201c565b73ffffffffffffffffffffffffffffffffffffffff168173ffffffffffffffffffffffffffffffffffffffff16837f2f8788117e7eff1d82e926ec794901d17c78024a50270940304540a733656f0d60405160405180910390a45b5050565b600080600084815260200190815260200160002060000160008373ffffffffffffffffffffffffffffffffffffffff1673ffffffffffffffffffffffffffffffffffffffff16815260200190815260200160002060009054906101000a900460ff16905092915050565b600033905090565b6118b680620002596000396000f3fe608060405234801561001057600080fd5b50600436106100f55760003560e01c806386be49bb11610097578063cc9ab02311610066578063cc9ab02314610280578063d53913931461029e578063d547741f146102bc578063ec556889146102d8576100f5565b806386be49bb146101fa57806391d1485414610216578063a217fddf14610246578063a838f6b414610264576100f5565b806336568abe116100d357806336568abe146101765780634646b5fd1461019257806353357ff8146101ae578063750275e1146101de576100f5565b806301ffc9a7146100fa578063248a9ca31461012a5780632f2ff15d1461015a575b600080fd5b610114600480360381019061010f9190610eca565b6102f6565b6040516101219190610f12565b60405180910390f35b610144600480360381019061013f9190610f63565b610370565b6040516101519190610f9f565b60405180910390f35b610174600480360381019061016f9190611018565b61038f565b005b610190600480360381019061018b9190611018565b6103b0565b005b6101ac60048036038101906101a79190611058565b610433565b005b6101c860048036038101906101c39190610f63565b61054b565b6040516101d591906110ba565b60405180910390f35b6101f860048036038101906101f3919061110b565b61057e565b005b610214600480360381019061020f9190611018565b610699565b005b610230600480360381019061022b9190611018565b61071a565b60405161023d9190610f12565b60405180910390f35b61024e610784565b60405161025b9190610f9f565b60405180910390f35b61027e60048036038101906102799190611172565b61078b565b005b6102886108a9565b6040516102959190610f9f565b60405180910390f35b6102a66108cd565b6040516102b39190610f9f565b60405180910390f35b6102d660048036038101906102d19190611018565b6108f1565b005b6102e0610912565b6040516102ed919061124c565b60405180910390f35b60007f7965db0b000000000000000000000000000000000000000000000000000000007bffffffffffffffffffffffffffffffffffffffffffffffffffffffff1916827bffffffffffffffffffffffffffffffffffffffffffffffffffffffff19161480610369575061036882610938565b5b9050919050565b6000806000838152602001908152602001600020600101549050919050565b61039882610370565b6103a1816109a2565b6103ab83836109b6565b505050565b6103b8610a96565b73ffffffffffffffffffffffffffffffffffffffff168173ffffffffffffffffffffffffffffffffffffffff1614610425576040517f08c379a000000000000000000000000000000000000000000000000000000000815260040161041c906112ea565b60405180910390fd5b61042f8282610a9e565b5050565b7f9f2df0fed2c77648de5860a4cc508cd0818c85b8b8a1ab4ceeef8d981c8956a661045d816109a2565b600160009054906101000a900473ffffffffffffffffffffffffffffffffffffffff1673ffffffffffffffffffffffffffffffffffffffff166394489202846002600087815260200190815260200160002060009054906101000a900473ffffffffffffffffffffffffffffffffffffffff16600088876040516020016104e693929190611352565b6040516020818303038152906040526040518463ffffffff1660e01b815260040161051393929190611419565b600060405180830381600087803b15801561052d57600080fd5b505af1158015610541573d6000803e3d6000fd5b5050505050505050565b60026020528060005260406000206000915054906101000a900473ffffffffffffffffffffffffffffffffffffffff1681565b7f9f2df0fed2c77648de5860a4cc508cd0818c85b8b8a1ab4ceeef8d981c8956a66105a8816109a2565b600160009054906101000a900473ffffffffffffffffffffffffffffffffffffffff1673ffffffffffffffffffffffffffffffffffffffff166394489202856002600088815260200190815260200160002060009054906101000a900473ffffffffffffffffffffffffffffffffffffffff16600189888860405160200161063394939291906114a1565b6040516020818303038152906040526040518463ffffffff1660e01b815260040161066093929190611419565b600060405180830381600087803b15801561067a57600080fd5b505af115801561068e573d6000803e3d6000fd5b505050505050505050565b7f28ef3adc5b20d69ab84ebe1e2f71d43bc6c9e6acb4a291daa08672fad7942e6c6106c3816109a2565b816002600085815260200190815260200160002060006101000a81548173ffffffffffffffffffffffffffffffffffffffff021916908373ffffffffffffffffffffffffffffffffffffffff160217905550505050565b600080600084815260200190815260200160002060000160008373ffffffffffffffffffffffffffffffffffffffff1673ffffffffffffffffffffffffffffffffffffffff16815260200190815260200160002060009054906101000a900460ff16905092915050565b6000801b81565b7f9f2df0fed2c77648de5860a4cc508cd0818c85b8b8a1ab4ceeef8d981c8956a66107b5816109a2565b600160009054906101000a900473ffffffffffffffffffffffffffffffffffffffff1673ffffffffffffffffffffffffffffffffffffffff166394489202866002600089815260200190815260200160002060009054906101000a900473ffffffffffffffffffffffffffffffffffffffff1660028a898989604051602001610842959493929190611521565b6040516020818303038152906040526040518463ffffffff1660e01b815260040161086f93929190611419565b600060405180830381600087803b15801561088957600080fd5b505af115801561089d573d6000803e3d6000fd5b50505050505050505050565b7f28ef3adc5b20d69ab84ebe1e2f71d43bc6c9e6acb4a291daa08672fad7942e6c81565b7f9f2df0fed2c77648de5860a4cc508cd0818c85b8b8a1ab4ceeef8d981c8956a681565b6108fa82610370565b610903816109a2565b61090d8383610a9e565b505050565b600160009054906101000a900473ffffffffffffffffffffffffffffffffffffffff1681565b60007f01ffc9a7000000000000000000000000000000000000000000000000000000007bffffffffffffffffffffffffffffffffffffffffffffffffffffffff1916827bffffffffffffffffffffffffffffffffffffffffffffffffffffffff1916149050919050565b6109b3816109ae610a96565b610b7f565b50565b6109c0828261071a565b610a9257600160008084815260200190815260200160002060000160008373ffffffffffffffffffffffffffffffffffffffff1673ffffffffffffffffffffffffffffffffffffffff16815260200190815260200160002060006101000a81548160ff021916908315150217905550610a37610a96565b73ffffffffffffffffffffffffffffffffffffffff168173ffffffffffffffffffffffffffffffffffffffff16837f2f8788117e7eff1d82e926ec794901d17c78024a50270940304540a733656f0d60405160405180910390a45b5050565b600033905090565b610aa8828261071a565b15610b7b57600080600084815260200190815260200160002060000160008373ffffffffffffffffffffffffffffffffffffffff1673ffffffffffffffffffffffffffffffffffffffff16815260200190815260200160002060006101000a81548160ff021916908315150217905550610b20610a96565b73ffffffffffffffffffffffffffffffffffffffff168173ffffffffffffffffffffffffffffffffffffffff16837ff6391f5c32d9c69d2a47ea670b442974b53935d1edc7fd64eb21e047a839171b60405160405180910390a45b5050565b610b89828261071a565b610c0057610b9681610c04565b610ba48360001c6020610c31565b604051602001610bb5929190611653565b6040516020818303038152906040526040517f08c379a0000000000000000000000000000000000000000000000000000000008152600401610bf791906116c6565b60405180910390fd5b5050565b6060610c2a8273ffffffffffffffffffffffffffffffffffffffff16601460ff16610c31565b9050919050565b606060006002836002610c449190611717565b610c4e9190611759565b67ffffffffffffffff811115610c6757610c6661178d565b5b6040519080825280601f01601f191660200182016040528015610c995781602001600182028036833780820191505090505b5090507f300000000000000000000000000000000000000000000000000000000000000081600081518110610cd157610cd06117bc565b5b60200101907effffffffffffffffffffffffffffffffffffffffffffffffffffffffffffff1916908160001a9053507f780000000000000000000000000000000000000000000000000000000000000081600181518110610d3557610d346117bc565b5b60200101907effffffffffffffffffffffffffffffffffffffffffffffffffffffffffffff1916908160001a90535060006001846002610d759190611717565b610d7f9190611759565b90505b6001811115610e1f577f3031323334353637383961626364656600000000000000000000000000000000600f861660108110610dc157610dc06117bc565b5b1a60f81b828281518110610dd857610dd76117bc565b5b60200101907effffffffffffffffffffffffffffffffffffffffffffffffffffffffffffff1916908160001a905350600485901c945080610e18906117eb565b9050610d82565b5060008414610e63576040517f08c379a0000000000000000000000000000000000000000000000000000000008152600401610e5a90611860565b60405180910390fd5b8091505092915050565b600080fd5b60007fffffffff0000000000000000000000000000000000000000000000000000000082169050919050565b610ea781610e72565b8114610eb257600080fd5b50565b600081359050610ec481610e9e565b92915050565b600060208284031215610ee057610edf610e6d565b5b6000610eee84828501610eb5565b91505092915050565b60008115159050919050565b610f0c81610ef7565b82525050565b6000602082019050610f276000830184610f03565b92915050565b6000819050919050565b610f4081610f2d565b8114610f4b57600080fd5b50565b600081359050610f5d81610f37565b92915050565b600060208284031215610f7957610f78610e6d565b5b6000610f8784828501610f4e565b91505092915050565b610f9981610f2d565b82525050565b6000602082019050610fb46000830184610f90565b92915050565b600073ffffffffffffffffffffffffffffffffffffffff82169050919050565b6000610fe582610fba565b9050919050565b610ff581610fda565b811461100057600080fd5b50565b60008135905061101281610fec565b92915050565b6000806040838503121561102f5761102e610e6d565b5b600061103d85828601610f4e565b925050602061104e85828601611003565b9150509250929050565b60008060006060848603121561107157611070610e6d565b5b600061107f86828701611003565b935050602061109086828701610f4e565b92505060406110a186828701611003565b9150509250925092565b6110b481610fda565b82525050565b60006020820190506110cf60008301846110ab565b92915050565b6000819050919050565b6110e8816110d5565b81146110f357600080fd5b50565b600081359050611105816110df565b92915050565b6000806000806080858703121561112557611124610e6d565b5b600061113387828801611003565b945050602061114487828801610f4e565b935050604061115587828801611003565b9250506060611166878288016110f6565b91505092959194509250565b600080600080600060a0868803121561118e5761118d610e6d565b5b600061119c88828901611003565b95505060206111ad88828901610f4e565b94505060406111be88828901611003565b93505060606111cf888289016110f6565b92505060806111e0888289016110f6565b9150509295509295909350565b6000819050919050565b600061121261120d61120884610fba565b6111ed565b610fba565b9050919050565b6000611224826111f7565b9050919050565b600061123682611219565b9050919050565b6112468161122b565b82525050565b6000602082019050611261600083018461123d565b92915050565b600082825260208201905092915050565b7f416363657373436f6e74726f6c3a2063616e206f6e6c792072656e6f756e636560008201527f20726f6c657320666f722073656c660000000000000000000000000000000000602082015250565b60006112d4602f83611267565b91506112df82611278565b604082019050919050565b60006020820190508181036000830152611303816112c7565b9050919050565b6000819050919050565b600060ff82169050919050565b600061133c6113376113328461130a565b6111ed565b611314565b9050919050565b61134c81611321565b82525050565b60006060820190506113676000830186611343565b61137460208301856110ab565b61138160408301846110ab565b949350505050565b600081519050919050565b600082825260208201905092915050565b60005b838110156113c35780820151818401526020810190506113a8565b60008484015250505050565b6000601f19601f8301169050919050565b60006113eb82611389565b6113f58185611394565b93506114058185602086016113a5565b61140e816113cf565b840191505092915050565b600060608201905061142e6000830186610f90565b61143b60208301856110ab565b818103604083015261144d81846113e0565b9050949350505050565b6000819050919050565b600061147c61147761147284611457565b6111ed565b611314565b9050919050565b61148c81611461565b82525050565b61149b816110d5565b82525050565b60006080820190506114b66000830187611483565b6114c360208301866110ab565b6114d060408301856110ab565b6114dd6060830184611492565b95945050505050565b6000819050919050565b600061150b611506611501846114e6565b6111ed565b611314565b9050919050565b61151b816114f0565b82525050565b600060a0820190506115366000830188611512565b61154360208301876110ab565b61155060408301866110ab565b61155d6060830185611492565b61156a6080830184611492565b9695505050505050565b600081905092915050565b7f416363657373436f6e74726f6c3a206163636f756e7420000000000000000000600082015250565b60006115b5601783611574565b91506115c08261157f565b601782019050919050565b600081519050919050565b60006115e1826115cb565b6115eb8185611574565b93506115fb8185602086016113a5565b80840191505092915050565b7f206973206d697373696e6720726f6c6520000000000000000000000000000000600082015250565b600061163d601183611574565b915061164882611607565b601182019050919050565b600061165e826115a8565b915061166a82856115d6565b915061167582611630565b915061168182846115d6565b91508190509392505050565b6000611698826115cb565b6116a28185611267565b93506116b28185602086016113a5565b6116bb816113cf565b840191505092915050565b600060208201905081810360008301526116e0818461168d565b905092915050565b7f4e487b7100000000000000000000000000000000000000000000000000000000600052601160045260246000fd5b6000611722826110d5565b915061172d836110d5565b925082820261173b816110d5565b91508282048414831517611752576117516116e8565b5b5092915050565b6000611764826110d5565b915061176f836110d5565b9250828201905080821115611787576117866116e8565b5b92915050565b7f4e487b7100000000000000000000000000000000000000000000000000000000600052604160045260246000fd5b7f4e487b7100000000000000000000000000000000000000000000000000000000600052603260045260246000fd5b60006117f6826110d5565b915060008203611809576118086116e8565b5b600182039050919050565b7f537472696e67733a20686578206c656e67746820696e73756666696369656e74600082015250565b600061184a602083611267565b915061185582611814565b602082019050919050565b600060208201905081810360008301526118798161183d565b905091905056fea2646970667358221220bc9bbb7897e0e3ddf8b29dc00079ec0776b3ae6788408a2fd015287b1708bac364736f6c63430008130033",
  "devdoc": {
    "events": {
      "RoleAdminChanged(bytes32,bytes32,bytes32)": {
        "details": "Emitted when `newAdminRole` is set as ``role``'s admin role, replacing `previousAdminRole` `DEFAULT_ADMIN_ROLE` is the starting admin for all roles, despite {RoleAdminChanged} not being emitted signaling this. _Available since v3.1._"
      },
      "RoleGranted(bytes32,address,address)": {
        "details": "Emitted when `account` is granted `role`. `sender` is the account that originated the contract call, an admin role bearer except when using {AccessControl-_setupRole}."
      },
      "RoleRevoked(bytes32,address,address)": {
        "details": "Emitted when `account` is revoked `role`. `sender` is the account that originated the contract call:   - if using `revokeRole`, it is the admin role bearer   - if using `renounceRole`, it is the role bearer (i.e. `account`)"
      }
    },
    "kind": "dev",
    "methods": {
      "getRoleAdmin(bytes32)": {
        "details": "Returns the admin role that controls `role`. See {grantRole} and {revokeRole}. To change a role's admin, use {_setRoleAdmin}."
      },
      "grantRole(bytes32,address)": {
        "details": "Grants `role` to `account`. If `account` had not been already granted `role`, emits a {RoleGranted} event. Requirements: - the caller must have ``role``'s admin role. May emit a {RoleGranted} event."
      },
      "hasRole(bytes32,address)": {
        "details": "Returns `true` if `account` has been granted `role`."
      },
      "renounceRole(bytes32,address)": {
        "details": "Revokes `role` from the calling account. Roles are often managed via {grantRole} and {revokeRole}: this function's purpose is to provide a mechanism for accounts to lose their privileges if they are compromised (such as when a trusted device is misplaced). If the calling account had been revoked `role`, emits a {RoleRevoked} event. Requirements: - the caller must be `account`. May emit a {RoleRevoked} event."
      },
      "revokeRole(bytes32,address)": {
        "details": "Revokes `role` from `account`. If `account` had been granted `role`, emits a {RoleRevoked} event. Requirements: - the caller must have ``role``'s admin role. May emit a {RoleRevoked} event."
      },
      "supportsInterface(bytes4)": {
        "details": "See {IERC165-supportsInterface}."
      }
    },
    "version": 1
  },
  "userdoc": {
    "kind": "user",
    "methods": {
      "mintTo(address,bytes32,address,uint256,uint256)": {
        "notice": "ERC1155 -> Specify How many *"
      }
    },
    "version": 1
  },
  "storageLayout": {
    "storage": [
      {
        "astId": 24,
        "contract": "contracts/MintManager.sol:MintManager",
        "label": "_roles",
        "offset": 0,
        "slot": "0",
        "type": "t_mapping(t_bytes32,t_struct(RoleData)19_storage)"
      },
      {
        "astId": 1987,
        "contract": "contracts/MintManager.sol:MintManager",
        "label": "proxy",
        "offset": 0,
        "slot": "1",
        "type": "t_contract(IMessageProxyForSchain)1875"
      },
      {
        "astId": 1991,
        "contract": "contracts/MintManager.sol:MintManager",
        "label": "crossChainRecievers",
        "offset": 0,
        "slot": "2",
        "type": "t_mapping(t_bytes32,t_address)"
      }
    ],
    "types": {
      "t_address": {
        "encoding": "inplace",
        "label": "address",
        "numberOfBytes": "20"
      },
      "t_bool": {
        "encoding": "inplace",
        "label": "bool",
        "numberOfBytes": "1"
      },
      "t_bytes32": {
        "encoding": "inplace",
        "label": "bytes32",
        "numberOfBytes": "32"
      },
      "t_contract(IMessageProxyForSchain)1875": {
        "encoding": "inplace",
        "label": "contract IMessageProxyForSchain",
        "numberOfBytes": "20"
      },
      "t_mapping(t_address,t_bool)": {
        "encoding": "mapping",
        "key": "t_address",
        "label": "mapping(address => bool)",
        "numberOfBytes": "32",
        "value": "t_bool"
      },
      "t_mapping(t_bytes32,t_address)": {
        "encoding": "mapping",
        "key": "t_bytes32",
        "label": "mapping(bytes32 => address)",
        "numberOfBytes": "32",
        "value": "t_address"
      },
      "t_mapping(t_bytes32,t_struct(RoleData)19_storage)": {
        "encoding": "mapping",
        "key": "t_bytes32",
        "label": "mapping(bytes32 => struct AccessControl.RoleData)",
        "numberOfBytes": "32",
        "value": "t_struct(RoleData)19_storage"
      },
      "t_struct(RoleData)19_storage": {
        "encoding": "inplace",
        "label": "struct AccessControl.RoleData",
        "members": [
          {
            "astId": 16,
            "contract": "contracts/MintManager.sol:MintManager",
            "label": "members",
            "offset": 0,
            "slot": "0",
            "type": "t_mapping(t_address,t_bool)"
          },
          {
            "astId": 18,
            "contract": "contracts/MintManager.sol:MintManager",
            "label": "adminRole",
            "offset": 0,
            "slot": "1",
            "type": "t_bytes32"
          }
        ],
        "numberOfBytes": "64"
      }
    }
  }
}