{
  "address": "0xa1d6b49A2829326C87E059245831B01457B4D569",
  "abi": [
    {
      "inputs": [
        {
          "internalType": "bytes32",
          "name": "_managerSchainHash",
          "type": "bytes32"
        },
        {
          "internalType": "address",
          "name": "_managerContractAddress",
          "type": "address"
        }
      ],
      "stateMutability": "nonpayable",
      "type": "constructor"
    },
    {
      "inputs": [],
      "name": "InvalidAction",
      "type": "error"
    },
    {
      "inputs": [],
      "name": "InvalidFromChain",
      "type": "error"
    },
    {
      "inputs": [],
      "name": "InvalidSender",
      "type": "error"
    },
    {
      "inputs": [],
      "name": "managerContractAddress",
      "outputs": [
        {
          "internalType": "address",
          "name": "",
          "type": "address"
        }
      ],
      "stateMutability": "view",
      "type": "function"
    },
    {
      "inputs": [],
      "name": "managerSchainHash",
      "outputs": [
        {
          "internalType": "bytes32",
          "name": "",
          "type": "bytes32"
        }
      ],
      "stateMutability": "view",
      "type": "function"
    },
    {
      "inputs": [],
      "name": "messageProxy",
      "outputs": [
        {
          "internalType": "address",
          "name": "",
          "type": "address"
        }
      ],
      "stateMutability": "view",
      "type": "function"
    },
    {
      "inputs": [
        {
          "internalType": "bytes32",
          "name": "fromSchainHash",
          "type": "bytes32"
        },
        {
          "internalType": "address",
          "name": "sender",
          "type": "address"
        },
        {
          "internalType": "bytes",
          "name": "data",
          "type": "bytes"
        }
      ],
      "name": "postMessage",
      "outputs": [],
      "stateMutability": "nonpayable",
      "type": "function"
    }
  ],
  "transactionHash": "0xdaca4645051cc04dfccc70e481b3f9b894c8ea2811700c3356f4af2bc1e5f437",
  "args": [
    "0x000001c6199cc0815ae75bc1bc121710532a69d513421f469f968a202657dd9c",
    "0x5227adCf5007f2Ec092c422437538000aFa1F94E"
  ],
  "numDeployments": 1,
  "solcInputHash": "c0b012127b2b611d7ac1e906a4066bcb",
  "bytecode": "0x608060405234801561001057600080fd5b50604051610bc3380380610bc38339818101604052810190610032919061016e565b8160028190555080600160006101000a81548173ffffffffffffffffffffffffffffffffffffffff021916908373ffffffffffffffffffffffffffffffffffffffff16021790555073d2aaa001000000000000000000000000000000006000806101000a81548173ffffffffffffffffffffffffffffffffffffffff021916908373ffffffffffffffffffffffffffffffffffffffff16021790555050506101ae565b600080fd5b6000819050919050565b6100ed816100da565b81146100f857600080fd5b50565b60008151905061010a816100e4565b92915050565b600073ffffffffffffffffffffffffffffffffffffffff82169050919050565b600061013b82610110565b9050919050565b61014b81610130565b811461015657600080fd5b50565b60008151905061016881610142565b92915050565b60008060408385031215610185576101846100d5565b5b6000610193858286016100fb565b92505060206101a485828601610159565b9150509250929050565b610a06806101bd6000396000f3fe608060405234801561001057600080fd5b506004361061004c5760003560e01c80635573b8b614610051578063884cee5a1461006f578063a5ddbd651461008b578063e937dcb5146100a9575b600080fd5b6100596100c7565b604051610066919061052c565b60405180910390f35b61008960048036038101906100849190610618565b6100eb565b005b6100936104bf565b6040516100a0919061052c565b60405180910390f35b6100b16104e5565b6040516100be919061069b565b60405180910390f35b60008054906101000a900473ffffffffffffffffffffffffffffffffffffffff1681565b60008054906101000a900473ffffffffffffffffffffffffffffffffffffffff1673ffffffffffffffffffffffffffffffffffffffff163373ffffffffffffffffffffffffffffffffffffffff1614610179576040517f08c379a000000000000000000000000000000000000000000000000000000000815260040161017090610713565b60405180910390fd5b60025484146101b4576040517fd4d4196800000000000000000000000000000000000000000000000000000000815260040160405180910390fd5b600160009054906101000a900473ffffffffffffffffffffffffffffffffffffffff1673ffffffffffffffffffffffffffffffffffffffff168373ffffffffffffffffffffffffffffffffffffffff161461023b576040517fddb5de5e00000000000000000000000000000000000000000000000000000000815260040160405180910390fd5b6000828281019061024c919061078b565b9050600060f81b817effffffffffffffffffffffffffffffffffffffffffffffffffffffffffffff19160361030457600080848481019061028d91906107f6565b92509250508073ffffffffffffffffffffffffffffffffffffffff1663755edd17836040518263ffffffff1660e01b81526004016102cb919061052c565b600060405180830381600087803b1580156102e557600080fd5b505af11580156102f9573d6000803e3d6000fd5b5050505050506104b8565b600160f81b817effffffffffffffffffffffffffffffffffffffffffffffffffffffffffffff1916036103c15760008060008585810190610345919061087f565b935093509350508173ffffffffffffffffffffffffffffffffffffffff1663449a52f884836040518363ffffffff1660e01b81526004016103879291906108f5565b600060405180830381600087803b1580156103a157600080fd5b505af11580156103b5573d6000803e3d6000fd5b505050505050506104b7565b600260f81b817effffffffffffffffffffffffffffffffffffffffffffffffffffffffffffff191603610484576000806000808686810190610403919061091e565b9450945094509450508273ffffffffffffffffffffffffffffffffffffffff16632baf2acb8584846040518463ffffffff1660e01b815260040161044993929190610999565b600060405180830381600087803b15801561046357600080fd5b505af1158015610477573d6000803e3d6000fd5b50505050505050506104b6565b6040517f4a7f394f00000000000000000000000000000000000000000000000000000000815260040160405180910390fd5b5b5b5050505050565b600160009054906101000a900473ffffffffffffffffffffffffffffffffffffffff1681565b60025481565b600073ffffffffffffffffffffffffffffffffffffffff82169050919050565b6000610516826104eb565b9050919050565b6105268161050b565b82525050565b6000602082019050610541600083018461051d565b92915050565b600080fd5b600080fd5b6000819050919050565b61056481610551565b811461056f57600080fd5b50565b6000813590506105818161055b565b92915050565b6105908161050b565b811461059b57600080fd5b50565b6000813590506105ad81610587565b92915050565b600080fd5b600080fd5b600080fd5b60008083601f8401126105d8576105d76105b3565b5b8235905067ffffffffffffffff8111156105f5576105f46105b8565b5b602083019150836001820283011115610611576106106105bd565b5b9250929050565b6000806000806060858703121561063257610631610547565b5b600061064087828801610572565b94505060206106518782880161059e565b935050604085013567ffffffffffffffff8111156106725761067161054c565b5b61067e878288016105c2565b925092505092959194509250565b61069581610551565b82525050565b60006020820190506106b0600083018461068c565b92915050565b600082825260208201905092915050565b7f53656e646572206973206e6f742061204d65737361676550726f787900000000600082015250565b60006106fd601c836106b6565b9150610708826106c7565b602082019050919050565b6000602082019050818103600083015261072c816106f0565b9050919050565b60007fff0000000000000000000000000000000000000000000000000000000000000082169050919050565b61076881610733565b811461077357600080fd5b50565b6000813590506107858161075f565b92915050565b6000602082840312156107a1576107a0610547565b5b60006107af84828501610776565b91505092915050565b60006107c3826104eb565b9050919050565b6107d3816107b8565b81146107de57600080fd5b50565b6000813590506107f0816107ca565b92915050565b60008060006060848603121561080f5761080e610547565b5b600061081d86828701610776565b935050602061082e868287016107e1565b925050604061083f868287016107e1565b9150509250925092565b6000819050919050565b61085c81610849565b811461086757600080fd5b50565b60008135905061087981610853565b92915050565b6000806000806080858703121561089957610898610547565b5b60006108a787828801610776565b94505060206108b8878288016107e1565b93505060406108c9878288016107e1565b92505060606108da8782880161086a565b91505092959194509250565b6108ef81610849565b82525050565b600060408201905061090a600083018561051d565b61091760208301846108e6565b9392505050565b600080600080600060a0868803121561093a57610939610547565b5b600061094888828901610776565b9550506020610959888289016107e1565b945050604061096a888289016107e1565b935050606061097b8882890161086a565b925050608061098c8882890161086a565b9150509295509295909350565b60006060820190506109ae600083018661051d565b6109bb60208301856108e6565b6109c860408301846108e6565b94935050505056fea26469706673582212206abe73ee2a2f629911280d4de17816b68264aba299cd915869a789c9c4dc895464736f6c63430008130033",
  "devdoc": {
    "kind": "dev",
    "methods": {},
    "version": 1
  },
  "userdoc": {
    "kind": "user",
    "methods": {},
    "version": 1
  },
  "storageLayout": {
    "storage": [
      {
        "astId": 11,
        "contract": "contracts/CrossChainReceiver.sol:CrossChainReceiver",
        "label": "messageProxy",
        "offset": 0,
        "slot": "0",
        "type": "t_address"
      },
      {
        "astId": 13,
        "contract": "contracts/CrossChainReceiver.sol:CrossChainReceiver",
        "label": "managerContractAddress",
        "offset": 0,
        "slot": "1",
        "type": "t_address"
      },
      {
        "astId": 15,
        "contract": "contracts/CrossChainReceiver.sol:CrossChainReceiver",
        "label": "managerSchainHash",
        "offset": 0,
        "slot": "2",
        "type": "t_bytes32"
      }
    ],
    "types": {
      "t_address": {
        "encoding": "inplace",
        "label": "address",
        "numberOfBytes": "20"
      },
      "t_bytes32": {
        "encoding": "inplace",
        "label": "bytes32",
        "numberOfBytes": "32"
      }
    }
  }
}